{
  "contractName": "SubscriptionManager",
  "abi": [
    {
      "anonymous": false,
      "inputs": [
        {
          "indexed": true,
          "internalType": "uint256",
          "name": "subscriptionId",
          "type": "uint256"
        },
        {
          "indexed": false,
          "internalType": "uint256",
          "name": "amount",
          "type": "uint256"
        }
      ],
      "name": "PaymentExecuted",
      "type": "event"
    },
    {
      "anonymous": false,
      "inputs": [
        {
          "indexed": true,
          "internalType": "uint256",
          "name": "subscriptionId",
          "type": "uint256"
        }
      ],
      "name": "SubscriptionCancelled",
      "type": "event"
    },
    {
      "anonymous": false,
      "inputs": [
        {
          "indexed": true,
          "internalType": "uint256",
          "name": "subscriptionId",
          "type": "uint256"
        },
        {
          "indexed": true,
          "internalType": "address",
          "name": "subscriber",
          "type": "address"
        },
        {
          "indexed": true,
          "internalType": "address",
          "name": "beneficiary",
          "type": "address"
        },
        {
          "indexed": false,
          "internalType": "uint256",
          "name": "amount",
          "type": "uint256"
        },
        {
          "indexed": false,
          "internalType": "uint256",
          "name": "interval",
          "type": "uint256"
        }
      ],
      "name": "SubscriptionCreated",
      "type": "event"
    },
    {
      "inputs": [],
      "name": "subscriptionCount",
      "outputs": [
        {
          "internalType": "uint256",
          "name": "",
          "type": "uint256"
        }
      ],
      "stateMutability": "view",
      "type": "function"
    },
    {
      "inputs": [
        {
          "internalType": "uint256",
          "name": "",
          "type": "uint256"
        }
      ],
      "name": "subscriptions",
      "outputs": [
        {
          "internalType": "address",
          "name": "subscriber",
          "type": "address"
        },
        {
          "internalType": "address",
          "name": "beneficiary",
          "type": "address"
        },
        {
          "internalType": "uint256",
          "name": "amount",
          "type": "uint256"
        },
        {
          "internalType": "uint256",
          "name": "interval",
          "type": "uint256"
        },
        {
          "internalType": "uint256",
          "name": "nextPayment",
          "type": "uint256"
        },
        {
          "internalType": "bool",
          "name": "active",
          "type": "bool"
        }
      ],
      "stateMutability": "view",
      "type": "function"
    },
    {
      "inputs": [
        {
          "internalType": "address",
          "name": "_beneficiary",
          "type": "address"
        },
        {
          "internalType": "uint256",
          "name": "_amount",
          "type": "uint256"
        },
        {
          "internalType": "uint256",
          "name": "_interval",
          "type": "uint256"
        }
      ],
      "name": "createSubscription",
      "outputs": [],
      "stateMutability": "payable",
      "type": "function"
    },
    {
      "inputs": [
        {
          "internalType": "uint256",
          "name": "_subscriptionId",
          "type": "uint256"
        }
      ],
      "name": "cancelSubscription",
      "outputs": [],
      "stateMutability": "nonpayable",
      "type": "function"
    },
    {
      "inputs": [
        {
          "internalType": "uint256",
          "name": "_subscriptionId",
          "type": "uint256"
        }
      ],
      "name": "executePayment",
      "outputs": [],
      "stateMutability": "nonpayable",
      "type": "function"
    },
    {
      "inputs": [],
      "name": "deposit",
      "outputs": [],
      "stateMutability": "payable",
      "type": "function"
    },
    {
      "inputs": [
        {
          "internalType": "uint256",
          "name": "_subscriptionId",
          "type": "uint256"
        }
      ],
      "name": "getSubscription",
      "outputs": [
        {
          "internalType": "address",
          "name": "subscriber",
          "type": "address"
        },
        {
          "internalType": "address",
          "name": "beneficiary",
          "type": "address"
        },
        {
          "internalType": "uint256",
          "name": "amount",
          "type": "uint256"
        },
        {
          "internalType": "uint256",
          "name": "interval",
          "type": "uint256"
        },
        {
          "internalType": "uint256",
          "name": "nextPayment",
          "type": "uint256"
        },
        {
          "internalType": "bool",
          "name": "active",
          "type": "bool"
        }
      ],
      "stateMutability": "view",
      "type": "function"
    }
  ],
  "bytecode": "0x6080604052348015600e575f80fd5b50610eb88061001c5f395ff3fe60806040526004361061006f575f3560e01c80632d5bbf601161004d5780632d5bbf60146100ed5780638a2405a81461012e578063d0e30db01461014a578063dc311dd3146101545761006f565b8063162a0cf814610073578063173b6d901461009b57806321235083146100c5575b5f80fd5b34801561007e575f80fd5b50610099600480360381019061009491906108b9565b610195565b005b3480156100a6575f80fd5b506100af610350565b6040516100bc91906108f3565b60405180910390f35b3480156100d0575f80fd5b506100eb60048036038101906100e691906108b9565b610355565b005b3480156100f8575f80fd5b50610113600480360381019061010e91906108b9565b610495565b60405161012596959493929190610965565b60405180910390f35b610148600480360381019061014391906109ee565b610517565b005b6101526107e9565b005b34801561015f575f80fd5b5061017a600480360381019061017591906108b9565b6107eb565b60405161018c96959493929190610965565b60405180910390f35b5f60015f8381526020019081526020015f209050806005015f9054906101000a900460ff166101f9576040517f08c379a00000000000000000000000000000000000000000000000000000000081526004016101f090610a98565b60405180910390fd5b8060040154421015610240576040517f08c379a000000000000000000000000000000000000000000000000000000000815260040161023790610b00565b60405180910390fd5b8060020154471015610287576040517f08c379a000000000000000000000000000000000000000000000000000000000815260040161027e90610b68565b60405180910390fd5b806001015f9054906101000a900473ffffffffffffffffffffffffffffffffffffffff1673ffffffffffffffffffffffffffffffffffffffff166108fc826002015490811502906040515f60405180830381858888f193505050501580156102f1573d5f803e3d5ffd5b508060030154816004015f8282546103099190610bb3565b92505081905550817f5838e0e9882ba51d885397e944dc4e853ca3ac94353d8c3e7c38c7e1fcf85f5e826002015460405161034491906108f3565b60405180910390a25050565b5f5481565b5f60015f8381526020019081526020015f2090503373ffffffffffffffffffffffffffffffffffffffff16815f015f9054906101000a900473ffffffffffffffffffffffffffffffffffffffff1673ffffffffffffffffffffffffffffffffffffffff16146103f9576040517f08c379a00000000000000000000000000000000000000000000000000000000081526004016103f090610c30565b60405180910390fd5b806005015f9054906101000a900460ff16610449576040517f08c379a000000000000000000000000000000000000000000000000000000000815260040161044090610c98565b60405180910390fd5b5f816005015f6101000a81548160ff021916908315150217905550817fbd2bcea75d16a85f005cd83447e0de57341bf926fe7419e6d553663e91ab4da760405160405180910390a25050565b6001602052805f5260405f205f91509050805f015f9054906101000a900473ffffffffffffffffffffffffffffffffffffffff1690806001015f9054906101000a900473ffffffffffffffffffffffffffffffffffffffff1690806002015490806003015490806004015490806005015f9054906101000a900460ff16905086565b5f8211610559576040517f08c379a000000000000000000000000000000000000000000000000000000000815260040161055090610d00565b60405180910390fd5b5f811161059b576040517f08c379a000000000000000000000000000000000000000000000000000000000815260040161059290610d8e565b60405180910390fd5b813410156105de576040517f08c379a00000000000000000000000000000000000000000000000000000000081526004016105d590610df6565b60405180910390fd5b5f808154809291906105ef90610e14565b91905055506040518060c001604052803373ffffffffffffffffffffffffffffffffffffffff1681526020018473ffffffffffffffffffffffffffffffffffffffff168152602001838152602001828152602001824261064f9190610bb3565b81526020016001151581525060015f805481526020019081526020015f205f820151815f015f6101000a81548173ffffffffffffffffffffffffffffffffffffffff021916908373ffffffffffffffffffffffffffffffffffffffff1602179055506020820151816001015f6101000a81548173ffffffffffffffffffffffffffffffffffffffff021916908373ffffffffffffffffffffffffffffffffffffffff16021790555060408201518160020155606082015181600301556080820151816004015560a0820151816005015f6101000a81548160ff0219169083151502179055509050508273ffffffffffffffffffffffffffffffffffffffff166108fc8390811502906040515f60405180830381858888f1935050505015801561077a573d5f803e3d5ffd5b508273ffffffffffffffffffffffffffffffffffffffff163373ffffffffffffffffffffffffffffffffffffffff165f547f11a7acdb40f12388db0682ce7cdb5ffb4d01939a9b0cf653f7c1af7c2f238ad885856040516107dc929190610e5b565b60405180910390a4505050565b565b5f805f805f805f60015f8981526020019081526020015f209050805f015f9054906101000a900473ffffffffffffffffffffffffffffffffffffffff16816001015f9054906101000a900473ffffffffffffffffffffffffffffffffffffffff16826002015483600301548460040154856005015f9054906101000a900460ff169650965096509650965096505091939550919395565b5f80fd5b5f819050919050565b61089881610886565b81146108a2575f80fd5b50565b5f813590506108b38161088f565b92915050565b5f602082840312156108ce576108cd610882565b5b5f6108db848285016108a5565b91505092915050565b6108ed81610886565b82525050565b5f6020820190506109065f8301846108e4565b92915050565b5f73ffffffffffffffffffffffffffffffffffffffff82169050919050565b5f6109358261090c565b9050919050565b6109458161092b565b82525050565b5f8115159050919050565b61095f8161094b565b82525050565b5f60c0820190506109785f83018961093c565b610985602083018861093c565b61099260408301876108e4565b61099f60608301866108e4565b6109ac60808301856108e4565b6109b960a0830184610956565b979650505050505050565b6109cd8161092b565b81146109d7575f80fd5b50565b5f813590506109e8816109c4565b92915050565b5f805f60608486031215610a0557610a04610882565b5b5f610a12868287016109da565b9350506020610a23868287016108a5565b9250506040610a34868287016108a5565b9150509250925092565b5f82825260208201905092915050565b7f537562736372697074696f6e206973206e6f74206163746976650000000000005f82015250565b5f610a82601a83610a3e565b9150610a8d82610a4e565b602082019050919050565b5f6020820190508181035f830152610aaf81610a76565b9050919050565b7f5061796d656e74206e6f742064756520796574000000000000000000000000005f82015250565b5f610aea601383610a3e565b9150610af582610ab6565b602082019050919050565b5f6020820190508181035f830152610b1781610ade565b9050919050565b7f496e73756666696369656e7420636f6e74726163742062616c616e63650000005f82015250565b5f610b52601d83610a3e565b9150610b5d82610b1e565b602082019050919050565b5f6020820190508181035f830152610b7f81610b46565b9050919050565b7f4e487b71000000000000000000000000000000000000000000000000000000005f52601160045260245ffd5b5f610bbd82610886565b9150610bc883610886565b9250828201905080821115610be057610bdf610b86565b5b92915050565b7f4e6f7420746865207375627363726962657200000000000000000000000000005f82015250565b5f610c1a601283610a3e565b9150610c2582610be6565b602082019050919050565b5f6020820190508181035f830152610c4781610c0e565b9050919050565b7f537562736372697074696f6e20616c726561647920696e6163746976650000005f82015250565b5f610c82601d83610a3e565b9150610c8d82610c4e565b602082019050919050565b5f6020820190508181035f830152610caf81610c76565b9050919050565b7f416d6f756e74206d7573742062652067726561746572207468616e207a65726f5f82015250565b5f610cea602083610a3e565b9150610cf582610cb6565b602082019050919050565b5f6020820190508181035f830152610d1781610cde565b9050919050565b7f496e74657276616c206d7573742062652067726561746572207468616e207a655f8201527f726f000000000000000000000000000000000000000000000000000000000000602082015250565b5f610d78602283610a3e565b9150610d8382610d1e565b604082019050919050565b5f6020820190508181035f830152610da581610d6c565b9050919050565b7f496e697469616c207061796d656e7420726571756972656400000000000000005f82015250565b5f610de0601883610a3e565b9150610deb82610dac565b602082019050919050565b5f6020820190508181035f830152610e0d81610dd4565b9050919050565b5f610e1e82610886565b91507fffffffffffffffffffffffffffffffffffffffffffffffffffffffffffffffff8203610e5057610e4f610b86565b5b600182019050919050565b5f604082019050610e6e5f8301856108e4565b610e7b60208301846108e4565b939250505056fea2646970667358221220e3b65e5f11dfb98774f2ffc8cd2e9a73a01301d8ca04b36254b25d3ccdb8ee2864736f6c634300081a0033",
  "immutableReferences": {},
  "source": "//SPDX-License-Identifier: MIT\n\npragma solidity ^0.8.26;\n\ncontract SubscriptionManager{\n\n    struct Subscription {\n        address subscriber;\n        address beneficiary;\n        uint256 amount; // Payment amount\n        uint256 interval; // Time between payments in seconds\n        uint256 nextPayment; // Timestamp of the next payment\n        bool active; // Subscription status\n    }\n\n    uint256 public subscriptionCount; // Total number of subscriptions\n    mapping(uint256 => Subscription) public subscriptions; // Map of subscription IDs to subscriptions\n\n    event SubscriptionCreated(\n        uint256 indexed subscriptionId,\n        address indexed subscriber,\n        address indexed beneficiary,\n        uint256 amount,\n        uint256 interval\n    );\n\n    event SubscriptionCancelled(uint256 indexed subscriptionId);\n    event PaymentExecuted(uint256 indexed subscriptionId, uint256 amount);\n\n    /**\n     * @dev Create a new subscription.\n     * @param _beneficiary Address to receive payments.\n     * @param _amount Amount to be paid per interval.\n     * @param _interval Time interval between payments in seconds.\n     */\n    function createSubscription(address _beneficiary, uint256 _amount, uint256 _interval) external payable {\n        require(_amount > 0, \"Amount must be greater than zero\");\n        require(_interval > 0, \"Interval must be greater than zero\");\n        require(msg.value >= _amount, \"Initial payment required\");\n\n        subscriptionCount++;\n        subscriptions[subscriptionCount] = Subscription({\n            subscriber: msg.sender,\n            beneficiary: _beneficiary,\n            amount: _amount,\n            interval: _interval,\n            nextPayment: block.timestamp + _interval,\n            active: true\n        });\n\n        // Transfer the initial payment\n        payable(_beneficiary).transfer(_amount);\n        emit SubscriptionCreated(subscriptionCount, msg.sender, _beneficiary, _amount, _interval);\n    }\n\n    /**\n     * @dev Cancel an active subscription.\n     * @param _subscriptionId ID of the subscription to cancel.\n     */\n    function cancelSubscription(uint256 _subscriptionId) external {\n        Subscription storage subscription = subscriptions[_subscriptionId];\n        require(subscription.subscriber == msg.sender, \"Not the subscriber\");\n        require(subscription.active, \"Subscription already inactive\");\n\n        subscription.active = false;\n\n        emit SubscriptionCancelled(_subscriptionId);\n    }\n\n    /**\n     * @dev Execute a payment for an active subscription.\n     * @param _subscriptionId ID of the subscription to execute payment for.\n     */\n    function executePayment(uint256 _subscriptionId) external {\n        Subscription storage subscription = subscriptions[_subscriptionId];\n        require(subscription.active, \"Subscription is not active\");\n        require(block.timestamp >= subscription.nextPayment, \"Payment not due yet\");\n\n        // Transfer payment\n        require(address(this).balance >= subscription.amount, \"Insufficient contract balance\");\n        payable(subscription.beneficiary).transfer(subscription.amount);\n\n        // Update next payment time\n        subscription.nextPayment += subscription.interval;\n\n        emit PaymentExecuted(_subscriptionId, subscription.amount);\n    }\n\n    /**\n     * @dev Deposit funds to the contract to facilitate payments.\n     */\n    function deposit() external payable {}\n\n\n    /**\n     * @dev Get details of a subscription.\n     * @param _subscriptionId ID of the subscription.\n     */\n    function getSubscription(uint256 _subscriptionId) external view\n        returns (\n            address subscriber,\n            address beneficiary,\n            uint256 amount,\n            uint256 interval,\n            uint256 nextPayment,\n            bool active\n        ){\n        Subscription storage subscription = subscriptions[_subscriptionId];\n        return (\n            subscription.subscriber,\n            subscription.beneficiary,\n            subscription.amount,\n            subscription.interval,\n            subscription.nextPayment,\n            subscription.active\n        );\n    }\n    \n}",
  "sourcePath": "/Users/arnavmangla/Developper/Devfest/blocky/subscription-manager/contracts/SubscriptionManager.sol",
  "compiler": {
    "name": "solc",
    "version": "0.8.26+commit.8a97fa7a.Emscripten.clang"
  },
  "schemaVersion": "3.4.16",
  "updatedAt": "2025-01-18T18:40:52.814Z",
  "devdoc": {
    "kind": "dev",
    "methods": {
      "cancelSubscription(uint256)": {
        "details": "Cancel an active subscription.",
        "params": {
          "_subscriptionId": "ID of the subscription to cancel."
        }
      },
      "createSubscription(address,uint256,uint256)": {
        "details": "Create a new subscription.",
        "params": {
          "_amount": "Amount to be paid per interval.",
          "_beneficiary": "Address to receive payments.",
          "_interval": "Time interval between payments in seconds."
        }
      },
      "deposit()": {
        "details": "Deposit funds to the contract to facilitate payments."
      },
      "executePayment(uint256)": {
        "details": "Execute a payment for an active subscription.",
        "params": {
          "_subscriptionId": "ID of the subscription to execute payment for."
        }
      },
      "getSubscription(uint256)": {
        "details": "Get details of a subscription.",
        "params": {
          "_subscriptionId": "ID of the subscription."
        }
      }
    },
    "version": 1
  },
  "userdoc": {
    "kind": "user",
    "methods": {},
    "version": 1
  }
}