{
  "contractName": "SubscriptionManager",
  "abi": [
    {
      "anonymous": false,
      "inputs": [
        {
          "indexed": true,
          "internalType": "uint256",
          "name": "subscriptionId",
          "type": "uint256"
        },
        {
          "indexed": false,
          "internalType": "uint256",
          "name": "amount",
          "type": "uint256"
        }
      ],
      "name": "PaymentExecuted",
      "type": "event"
    },
    {
      "anonymous": false,
      "inputs": [
        {
          "indexed": true,
          "internalType": "uint256",
          "name": "subscriptionId",
          "type": "uint256"
        }
      ],
      "name": "SubscriptionCancelled",
      "type": "event"
    },
    {
      "anonymous": false,
      "inputs": [
        {
          "indexed": true,
          "internalType": "uint256",
          "name": "subscriptionId",
          "type": "uint256"
        },
        {
          "indexed": true,
          "internalType": "address",
          "name": "subscriber",
          "type": "address"
        },
        {
          "indexed": true,
          "internalType": "address",
          "name": "beneficiary",
          "type": "address"
        },
        {
          "indexed": false,
          "internalType": "string",
          "name": "companyName",
          "type": "string"
        },
        {
          "indexed": false,
          "internalType": "string",
          "name": "domainName",
          "type": "string"
        },
        {
          "indexed": false,
          "internalType": "uint256",
          "name": "dateSince",
          "type": "uint256"
        },
        {
          "indexed": false,
          "internalType": "uint256",
          "name": "amount",
          "type": "uint256"
        },
        {
          "indexed": false,
          "internalType": "uint256",
          "name": "interval",
          "type": "uint256"
        }
      ],
      "name": "SubscriptionCreated",
      "type": "event"
    },
    {
      "inputs": [],
      "name": "subscriptionCount",
      "outputs": [
        {
          "internalType": "uint256",
          "name": "",
          "type": "uint256"
        }
      ],
      "stateMutability": "view",
      "type": "function"
    },
    {
      "inputs": [
        {
          "internalType": "uint256",
          "name": "",
          "type": "uint256"
        }
      ],
      "name": "subscriptions",
      "outputs": [
        {
          "internalType": "address",
          "name": "subscriber",
          "type": "address"
        },
        {
          "internalType": "address",
          "name": "beneficiary",
          "type": "address"
        },
        {
          "internalType": "string",
          "name": "companyName",
          "type": "string"
        },
        {
          "internalType": "string",
          "name": "domainName",
          "type": "string"
        },
        {
          "internalType": "uint256",
          "name": "dateSince",
          "type": "uint256"
        },
        {
          "internalType": "uint256",
          "name": "amount",
          "type": "uint256"
        },
        {
          "internalType": "uint256",
          "name": "interval",
          "type": "uint256"
        },
        {
          "internalType": "uint256",
          "name": "nextPayment",
          "type": "uint256"
        },
        {
          "internalType": "bool",
          "name": "active",
          "type": "bool"
        }
      ],
      "stateMutability": "view",
      "type": "function"
    },
    {
      "inputs": [
        {
          "internalType": "address",
          "name": "_beneficiary",
          "type": "address"
        },
        {
          "internalType": "string",
          "name": "_companyName",
          "type": "string"
        },
        {
          "internalType": "string",
          "name": "_domainName",
          "type": "string"
        },
        {
          "internalType": "uint256",
          "name": "_amount",
          "type": "uint256"
        },
        {
          "internalType": "uint256",
          "name": "_interval",
          "type": "uint256"
        }
      ],
      "name": "createSubscription",
      "outputs": [],
      "stateMutability": "payable",
      "type": "function"
    },
    {
      "inputs": [
        {
          "internalType": "uint256",
          "name": "_subscriptionId",
          "type": "uint256"
        }
      ],
      "name": "cancelSubscription",
      "outputs": [],
      "stateMutability": "nonpayable",
      "type": "function"
    },
    {
      "inputs": [
        {
          "internalType": "uint256",
          "name": "_subscriptionId",
          "type": "uint256"
        }
      ],
      "name": "executePayment",
      "outputs": [],
      "stateMutability": "nonpayable",
      "type": "function"
    },
    {
      "inputs": [],
      "name": "deposit",
      "outputs": [],
      "stateMutability": "payable",
      "type": "function"
    },
    {
      "inputs": [
        {
          "internalType": "uint256",
          "name": "_subscriptionId",
          "type": "uint256"
        }
      ],
      "name": "getSubscription",
      "outputs": [
        {
          "internalType": "address",
          "name": "subscriber",
          "type": "address"
        },
        {
          "internalType": "address",
          "name": "beneficiary",
          "type": "address"
        },
        {
          "internalType": "uint256",
          "name": "amount",
          "type": "uint256"
        },
        {
          "internalType": "uint256",
          "name": "interval",
          "type": "uint256"
        },
        {
          "internalType": "uint256",
          "name": "nextPayment",
          "type": "uint256"
        },
        {
          "internalType": "bool",
          "name": "active",
          "type": "bool"
        }
      ],
      "stateMutability": "view",
      "type": "function"
    },
    {
      "inputs": [],
      "name": "getAllSubscriptions",
      "outputs": [
        {
          "components": [
            {
              "internalType": "address",
              "name": "subscriber",
              "type": "address"
            },
            {
              "internalType": "address",
              "name": "beneficiary",
              "type": "address"
            },
            {
              "internalType": "string",
              "name": "companyName",
              "type": "string"
            },
            {
              "internalType": "string",
              "name": "domainName",
              "type": "string"
            },
            {
              "internalType": "uint256",
              "name": "dateSince",
              "type": "uint256"
            },
            {
              "internalType": "uint256",
              "name": "amount",
              "type": "uint256"
            },
            {
              "internalType": "uint256",
              "name": "interval",
              "type": "uint256"
            },
            {
              "internalType": "uint256",
              "name": "nextPayment",
              "type": "uint256"
            },
            {
              "internalType": "bool",
              "name": "active",
              "type": "bool"
            }
          ],
          "internalType": "struct SubscriptionManager.Subscription[]",
          "name": "",
          "type": "tuple[]"
        }
      ],
      "stateMutability": "view",
      "type": "function"
    }
  ],
  "bytecode": "0x6080604052348015600e575f80fd5b50611bb88061001c5f395ff3fe60806040526004361061007a575f3560e01c806356eb00a11161004d57806356eb00a11461013c578063bb03051514610166578063d0e30db014610182578063dc311dd31461018c5761007a565b8063162a0cf81461007e578063173b6d90146100a657806321235083146100d05780632d5bbf60146100f8575b5f80fd5b348015610089575f80fd5b506100a4600480360381019061009f9190610dbb565b6101cd565b005b3480156100b1575f80fd5b506100ba610388565b6040516100c79190610df5565b60405180910390f35b3480156100db575f80fd5b506100f660048036038101906100f19190610dbb565b61038d565b005b348015610103575f80fd5b5061011e60048036038101906101199190610dbb565b6104cd565b60405161013399989796959493929190610ed7565b60405180910390f35b348015610147575f80fd5b5061015061066d565b60405161015d9190611169565b60405180910390f35b610180600480360381019061017b91906112df565b610942565b005b61018a610c6b565b005b348015610197575f80fd5b506101b260048036038101906101ad9190610dbb565b610c6d565b6040516101c49695949392919061138e565b60405180910390f35b5f60015f8381526020019081526020015f209050806008015f9054906101000a900460ff16610231576040517f08c379a000000000000000000000000000000000000000000000000000000000815260040161022890611437565b60405180910390fd5b8060070154421015610278576040517f08c379a000000000000000000000000000000000000000000000000000000000815260040161026f9061149f565b60405180910390fd5b80600501544710156102bf576040517f08c379a00000000000000000000000000000000000000000000000000000000081526004016102b690611507565b60405180910390fd5b806001015f9054906101000a900473ffffffffffffffffffffffffffffffffffffffff1673ffffffffffffffffffffffffffffffffffffffff166108fc826005015490811502906040515f60405180830381858888f19350505050158015610329573d5f803e3d5ffd5b508060060154816007015f8282546103419190611552565b92505081905550817f5838e0e9882ba51d885397e944dc4e853ca3ac94353d8c3e7c38c7e1fcf85f5e826005015460405161037c9190610df5565b60405180910390a25050565b5f5481565b5f60015f8381526020019081526020015f2090503373ffffffffffffffffffffffffffffffffffffffff16815f015f9054906101000a900473ffffffffffffffffffffffffffffffffffffffff1673ffffffffffffffffffffffffffffffffffffffff1614610431576040517f08c379a0000000000000000000000000000000000000000000000000000000008152600401610428906115cf565b60405180910390fd5b806008015f9054906101000a900460ff16610481576040517f08c379a000000000000000000000000000000000000000000000000000000000815260040161047890611637565b60405180910390fd5b5f816008015f6101000a81548160ff021916908315150217905550817fbd2bcea75d16a85f005cd83447e0de57341bf926fe7419e6d553663e91ab4da760405160405180910390a25050565b6001602052805f5260405f205f91509050805f015f9054906101000a900473ffffffffffffffffffffffffffffffffffffffff1690806001015f9054906101000a900473ffffffffffffffffffffffffffffffffffffffff169080600201805461053690611682565b80601f016020809104026020016040519081016040528092919081815260200182805461056290611682565b80156105ad5780601f10610584576101008083540402835291602001916105ad565b820191905f5260205f20905b81548152906001019060200180831161059057829003601f168201915b5050505050908060030180546105c290611682565b80601f01602080910402602001604051908101604052809291908181526020018280546105ee90611682565b80156106395780601f1061061057610100808354040283529160200191610639565b820191905f5260205f20905b81548152906001019060200180831161061c57829003601f168201915b505050505090806004015490806005015490806006015490806007015490806008015f9054906101000a900460ff16905089565b60605f805467ffffffffffffffff81111561068b5761068a6111bb565b5b6040519080825280602002602001820160405280156106c457816020015b6106b1610d04565b8152602001906001900390816106a95790505b5090505f600190505b5f54811161093a5760015f8281526020019081526020015f20604051806101200160405290815f82015f9054906101000a900473ffffffffffffffffffffffffffffffffffffffff1673ffffffffffffffffffffffffffffffffffffffff1673ffffffffffffffffffffffffffffffffffffffff168152602001600182015f9054906101000a900473ffffffffffffffffffffffffffffffffffffffff1673ffffffffffffffffffffffffffffffffffffffff1673ffffffffffffffffffffffffffffffffffffffff1681526020016002820180546107ab90611682565b80601f01602080910402602001604051908101604052809291908181526020018280546107d790611682565b80156108225780601f106107f957610100808354040283529160200191610822565b820191905f5260205f20905b81548152906001019060200180831161080557829003601f168201915b5050505050815260200160038201805461083b90611682565b80601f016020809104026020016040519081016040528092919081815260200182805461086790611682565b80156108b25780601f10610889576101008083540402835291602001916108b2565b820191905f5260205f20905b81548152906001019060200180831161089557829003601f168201915b5050505050815260200160048201548152602001600582015481526020016006820154815260200160078201548152602001600882015f9054906101000a900460ff1615151515815250508260018361090b91906116b2565b8151811061091c5761091b6116e5565b5b6020026020010181905250808061093290611712565b9150506106cd565b508091505090565b5f8211610984576040517f08c379a000000000000000000000000000000000000000000000000000000000815260040161097b906117a3565b60405180910390fd5b5f81116109c6576040517f08c379a00000000000000000000000000000000000000000000000000000000081526004016109bd90611831565b60405180910390fd5b81341015610a09576040517f08c379a0000000000000000000000000000000000000000000000000000000008152600401610a0090611899565b60405180910390fd5b5f4290505f80815480929190610a1e90611712565b91905055506040518061012001604052803373ffffffffffffffffffffffffffffffffffffffff1681526020018773ffffffffffffffffffffffffffffffffffffffff1681526020018681526020018581526020018281526020018481526020018381526020018383610a919190611552565b81526020016001151581525060015f805481526020019081526020015f205f820151815f015f6101000a81548173ffffffffffffffffffffffffffffffffffffffff021916908373ffffffffffffffffffffffffffffffffffffffff1602179055506020820151816001015f6101000a81548173ffffffffffffffffffffffffffffffffffffffff021916908373ffffffffffffffffffffffffffffffffffffffff1602179055506040820151816002019081610b4e9190611a54565b506060820151816003019081610b649190611a54565b506080820151816004015560a0820151816005015560c0820151816006015560e08201518160070155610100820151816008015f6101000a81548160ff0219169083151502179055509050508573ffffffffffffffffffffffffffffffffffffffff166108fc8490811502906040515f60405180830381858888f19350505050158015610bf3573d5f803e3d5ffd5b508573ffffffffffffffffffffffffffffffffffffffff163373ffffffffffffffffffffffffffffffffffffffff165f547f3fa9e4fae9a46fba6a64e48de5adabf6017dadb24e8fe54d36895f4ce5ff3dd28888868989604051610c5b959493929190611b23565b60405180910390a4505050505050565b565b5f805f805f805f60015f8981526020019081526020015f209050805f015f9054906101000a900473ffffffffffffffffffffffffffffffffffffffff16816001015f9054906101000a900473ffffffffffffffffffffffffffffffffffffffff16826005015483600601548460070154856008015f9054906101000a900460ff169650965096509650965096505091939550919395565b6040518061012001604052805f73ffffffffffffffffffffffffffffffffffffffff1681526020015f73ffffffffffffffffffffffffffffffffffffffff16815260200160608152602001606081526020015f81526020015f81526020015f81526020015f81526020015f151581525090565b5f604051905090565b5f80fd5b5f80fd5b5f819050919050565b610d9a81610d88565b8114610da4575f80fd5b50565b5f81359050610db581610d91565b92915050565b5f60208284031215610dd057610dcf610d80565b5b5f610ddd84828501610da7565b91505092915050565b610def81610d88565b82525050565b5f602082019050610e085f830184610de6565b92915050565b5f73ffffffffffffffffffffffffffffffffffffffff82169050919050565b5f610e3782610e0e565b9050919050565b610e4781610e2d565b82525050565b5f81519050919050565b5f82825260208201905092915050565b8281835e5f83830152505050565b5f601f19601f8301169050919050565b5f610e8f82610e4d565b610e998185610e57565b9350610ea9818560208601610e67565b610eb281610e75565b840191505092915050565b5f8115159050919050565b610ed181610ebd565b82525050565b5f61012082019050610eeb5f83018c610e3e565b610ef8602083018b610e3e565b8181036040830152610f0a818a610e85565b90508181036060830152610f1e8189610e85565b9050610f2d6080830188610de6565b610f3a60a0830187610de6565b610f4760c0830186610de6565b610f5460e0830185610de6565b610f62610100830184610ec8565b9a9950505050505050505050565b5f81519050919050565b5f82825260208201905092915050565b5f819050602082019050919050565b610fa281610e2d565b82525050565b5f82825260208201905092915050565b5f610fc282610e4d565b610fcc8185610fa8565b9350610fdc818560208601610e67565b610fe581610e75565b840191505092915050565b610ff981610d88565b82525050565b61100881610ebd565b82525050565b5f61012083015f8301516110245f860182610f99565b5060208301516110376020860182610f99565b506040830151848203604086015261104f8282610fb8565b915050606083015184820360608601526110698282610fb8565b915050608083015161107e6080860182610ff0565b5060a083015161109160a0860182610ff0565b5060c08301516110a460c0860182610ff0565b5060e08301516110b760e0860182610ff0565b506101008301516110cc610100860182610fff565b508091505092915050565b5f6110e2838361100e565b905092915050565b5f602082019050919050565b5f61110082610f70565b61110a8185610f7a565b93508360208202850161111c85610f8a565b805f5b85811015611157578484038952815161113885826110d7565b9450611143836110ea565b925060208a0199505060018101905061111f565b50829750879550505050505092915050565b5f6020820190508181035f83015261118181846110f6565b905092915050565b61119281610e2d565b811461119c575f80fd5b50565b5f813590506111ad81611189565b92915050565b5f80fd5b5f80fd5b7f4e487b71000000000000000000000000000000000000000000000000000000005f52604160045260245ffd5b6111f182610e75565b810181811067ffffffffffffffff821117156112105761120f6111bb565b5b80604052505050565b5f611222610d77565b905061122e82826111e8565b919050565b5f67ffffffffffffffff82111561124d5761124c6111bb565b5b61125682610e75565b9050602081019050919050565b828183375f83830152505050565b5f61128361127e84611233565b611219565b90508281526020810184848401111561129f5761129e6111b7565b5b6112aa848285611263565b509392505050565b5f82601f8301126112c6576112c56111b3565b5b81356112d6848260208601611271565b91505092915050565b5f805f805f60a086880312156112f8576112f7610d80565b5b5f6113058882890161119f565b955050602086013567ffffffffffffffff81111561132657611325610d84565b5b611332888289016112b2565b945050604086013567ffffffffffffffff81111561135357611352610d84565b5b61135f888289016112b2565b935050606061137088828901610da7565b925050608061138188828901610da7565b9150509295509295909350565b5f60c0820190506113a15f830189610e3e565b6113ae6020830188610e3e565b6113bb6040830187610de6565b6113c86060830186610de6565b6113d56080830185610de6565b6113e260a0830184610ec8565b979650505050505050565b7f537562736372697074696f6e206973206e6f74206163746976650000000000005f82015250565b5f611421601a83610e57565b915061142c826113ed565b602082019050919050565b5f6020820190508181035f83015261144e81611415565b9050919050565b7f5061796d656e74206e6f742064756520796574000000000000000000000000005f82015250565b5f611489601383610e57565b915061149482611455565b602082019050919050565b5f6020820190508181035f8301526114b68161147d565b9050919050565b7f496e73756666696369656e7420636f6e74726163742062616c616e63650000005f82015250565b5f6114f1601d83610e57565b91506114fc826114bd565b602082019050919050565b5f6020820190508181035f83015261151e816114e5565b9050919050565b7f4e487b71000000000000000000000000000000000000000000000000000000005f52601160045260245ffd5b5f61155c82610d88565b915061156783610d88565b925082820190508082111561157f5761157e611525565b5b92915050565b7f4e6f7420746865207375627363726962657200000000000000000000000000005f82015250565b5f6115b9601283610e57565b91506115c482611585565b602082019050919050565b5f6020820190508181035f8301526115e6816115ad565b9050919050565b7f537562736372697074696f6e20616c726561647920696e6163746976650000005f82015250565b5f611621601d83610e57565b915061162c826115ed565b602082019050919050565b5f6020820190508181035f83015261164e81611615565b9050919050565b7f4e487b71000000000000000000000000000000000000000000000000000000005f52602260045260245ffd5b5f600282049050600182168061169957607f821691505b6020821081036116ac576116ab611655565b5b50919050565b5f6116bc82610d88565b91506116c783610d88565b92508282039050818111156116df576116de611525565b5b92915050565b7f4e487b71000000000000000000000000000000000000000000000000000000005f52603260045260245ffd5b5f61171c82610d88565b91507fffffffffffffffffffffffffffffffffffffffffffffffffffffffffffffffff820361174e5761174d611525565b5b600182019050919050565b7f416d6f756e74206d7573742062652067726561746572207468616e207a65726f5f82015250565b5f61178d602083610e57565b915061179882611759565b602082019050919050565b5f6020820190508181035f8301526117ba81611781565b9050919050565b7f496e74657276616c206d7573742062652067726561746572207468616e207a655f8201527f726f000000000000000000000000000000000000000000000000000000000000602082015250565b5f61181b602283610e57565b9150611826826117c1565b604082019050919050565b5f6020820190508181035f8301526118488161180f565b9050919050565b7f496e697469616c207061796d656e7420726571756972656400000000000000005f82015250565b5f611883601883610e57565b915061188e8261184f565b602082019050919050565b5f6020820190508181035f8301526118b081611877565b9050919050565b5f819050815f5260205f209050919050565b5f6020601f8301049050919050565b5f82821b905092915050565b5f600883026119137fffffffffffffffffffffffffffffffffffffffffffffffffffffffffffffffff826118d8565b61191d86836118d8565b95508019841693508086168417925050509392505050565b5f819050919050565b5f61195861195361194e84610d88565b611935565b610d88565b9050919050565b5f819050919050565b6119718361193e565b61198561197d8261195f565b8484546118e4565b825550505050565b5f90565b61199961198d565b6119a4818484611968565b505050565b5b818110156119c7576119bc5f82611991565b6001810190506119aa565b5050565b601f821115611a0c576119dd816118b7565b6119e6846118c9565b810160208510156119f5578190505b611a09611a01856118c9565b8301826119a9565b50505b505050565b5f82821c905092915050565b5f611a2c5f1984600802611a11565b1980831691505092915050565b5f611a448383611a1d565b9150826002028217905092915050565b611a5d82610e4d565b67ffffffffffffffff811115611a7657611a756111bb565b5b611a808254611682565b611a8b8282856119cb565b5f60209050601f831160018114611abc575f8415611aaa578287015190505b611ab48582611a39565b865550611b1b565b601f198416611aca866118b7565b5f5b82811015611af157848901518255600182019150602085019450602081019050611acc565b86831015611b0e5784890151611b0a601f891682611a1d565b8355505b6001600288020188555050505b505050505050565b5f60a0820190508181035f830152611b3b8188610e85565b90508181036020830152611b4f8187610e85565b9050611b5e6040830186610de6565b611b6b6060830185610de6565b611b786080830184610de6565b969550505050505056fea264697066735822122046a52e4957332157a3c6e8e1dc57fd4134b8040a9076b7d101869a50ba4aaef764736f6c634300081a0033",
  "immutableReferences": {},
  "source": "//SPDX-License-Identifier: MIT\n\npragma solidity ^0.8.26;\n\ncontract SubscriptionManager{\n\n    struct Subscription {\n        address subscriber;\n        address beneficiary;\n        string companyName;\n        string domainName;\n        uint256 dateSince;\n        uint256 amount; // Payment amount\n        uint256 interval; // Time between payments in seconds\n        uint256 nextPayment; // Timestamp of the next payment\n        bool active; // Subscription status\n    }\n\n    uint256 public subscriptionCount; // Total number of subscriptions\n    mapping(uint256 => Subscription) public subscriptions; // Map of subscription IDs to subscriptions\n\n    event SubscriptionCreated(\n        uint256 indexed subscriptionId,\n        address indexed subscriber,\n        address indexed beneficiary,\n        string companyName,\n        string domainName,\n        uint256 dateSince,\n        uint256 amount,\n        uint256 interval\n    );\n\n    event SubscriptionCancelled(uint256 indexed subscriptionId);\n    event PaymentExecuted(uint256 indexed subscriptionId, uint256 amount);\n\n    /**\n     * @dev Create a new subscription.\n     * @param _beneficiary Address to receive payments.\n     * @param _amount Amount to be paid per interval.\n     * @param _interval Time interval between payments in seconds.\n     */\n    function createSubscription(address _beneficiary, string memory _companyName, string memory _domainName, uint256 _amount, uint256 _interval) external payable {\n        require(_amount > 0, \"Amount must be greater than zero\");\n        require(_interval > 0, \"Interval must be greater than zero\");\n        require(msg.value >= _amount, \"Initial payment required\");\n\n        uint256 time = block.timestamp;\n\n        subscriptionCount++;\n        subscriptions[subscriptionCount] = Subscription({\n            subscriber: msg.sender,\n            beneficiary: _beneficiary,\n            companyName: _companyName,\n            domainName: _domainName,\n            dateSince: time,\n            amount: _amount,\n            interval: _interval,\n            nextPayment: time + _interval,\n            active: true\n        });\n\n        // Transfer the initial payment\n        payable(_beneficiary).transfer(_amount);\n        emit SubscriptionCreated(subscriptionCount, msg.sender, _beneficiary, _companyName, _domainName, time, _amount, _interval);\n    }\n\n    /**\n     * @dev Cancel an active subscription.\n     * @param _subscriptionId ID of the subscription to cancel.\n     */\n    function cancelSubscription(uint256 _subscriptionId) external {\n        Subscription storage subscription = subscriptions[_subscriptionId];\n        require(subscription.subscriber == msg.sender, \"Not the subscriber\");\n        require(subscription.active, \"Subscription already inactive\");\n\n        subscription.active = false;\n\n        emit SubscriptionCancelled(_subscriptionId);\n    }\n\n    /**\n     * @dev Execute a payment for an active subscription.\n     * @param _subscriptionId ID of the subscription to execute payment for.\n     */\n    function executePayment(uint256 _subscriptionId) external {\n        Subscription storage subscription = subscriptions[_subscriptionId];\n        require(subscription.active, \"Subscription is not active\");\n        require(block.timestamp >= subscription.nextPayment, \"Payment not due yet\");\n\n        // Transfer payment\n        require(address(this).balance >= subscription.amount, \"Insufficient contract balance\");\n        payable(subscription.beneficiary).transfer(subscription.amount);\n\n        // Update next payment time\n        subscription.nextPayment += subscription.interval;\n\n        emit PaymentExecuted(_subscriptionId, subscription.amount);\n    }\n\n    /**\n     * @dev Deposit funds to the contract to facilitate payments.\n     */\n    function deposit() external payable {}\n\n\n    /**\n     * @dev Get details of a subscription.\n     * @param _subscriptionId ID of the subscription.\n     */\n    function getSubscription(uint256 _subscriptionId) external view\n        returns (\n            address subscriber,\n            address beneficiary,\n            uint256 amount,\n            uint256 interval,\n            uint256 nextPayment,\n            bool active\n        ){\n        Subscription storage subscription = subscriptions[_subscriptionId];\n        return (\n            subscription.subscriber,\n            subscription.beneficiary,\n            subscription.amount,\n            subscription.interval,\n            subscription.nextPayment,\n            subscription.active\n        );\n    }\n\n    function getAllSubscriptions() external view returns (Subscription[] memory) {\n        Subscription[] memory allSubscriptions = new Subscription[](subscriptionCount);\n        for (uint256 i = 1; i <= subscriptionCount; i++) {\n            allSubscriptions[i - 1] = subscriptions[i];\n        }\n        return allSubscriptions;\n    }\n    \n}",
  "sourcePath": "/home/yash/coding/blocky/subscription-manager/contracts/SubscriptionManager.sol",
  "compiler": {
    "name": "solc",
    "version": "0.8.26+commit.8a97fa7a.Emscripten.clang"
  },
  "schemaVersion": "3.4.16",
  "updatedAt": "2025-01-19T09:24:45.646Z",
  "devdoc": {
    "kind": "dev",
    "methods": {
      "cancelSubscription(uint256)": {
        "details": "Cancel an active subscription.",
        "params": {
          "_subscriptionId": "ID of the subscription to cancel."
        }
      },
      "createSubscription(address,string,string,uint256,uint256)": {
        "details": "Create a new subscription.",
        "params": {
          "_amount": "Amount to be paid per interval.",
          "_beneficiary": "Address to receive payments.",
          "_interval": "Time interval between payments in seconds."
        }
      },
      "deposit()": {
        "details": "Deposit funds to the contract to facilitate payments."
      },
      "executePayment(uint256)": {
        "details": "Execute a payment for an active subscription.",
        "params": {
          "_subscriptionId": "ID of the subscription to execute payment for."
        }
      },
      "getSubscription(uint256)": {
        "details": "Get details of a subscription.",
        "params": {
          "_subscriptionId": "ID of the subscription."
        }
      }
    },
    "version": 1
  },
  "userdoc": {
    "kind": "user",
    "methods": {},
    "version": 1
  }
}